:100000000C9446000C9463000C9463000C94630001
:100010000C9463000C9463000C9463000C946300D4
:100020000C9463000C9463000C9463000C946300C4
:100030000C9463000C9463000C9463000C946300B4
:100040000C9463000C9463000C9466000C946300A1
:100050000C9463000C9463000C9463000C94630094
:100060000C9463000C9463000C9463000C94630084
:100070000C9463000C9463000C94B9000C9463001E
:100080000C9463000C9463000C94630011241FBE55
:10009000CFEFD0E1DEBFCDBF11E0A0E0B1E0EAE2FA
:1000A000F2E002C005900D92A030B107D9F721E02F
:1000B000A0E0B1E001C01D92AC30B207E1F70E94B0
:1000C0000D010C9413010C94000008951F920F92DF
:1000D0000FB60F9211242F933F938F939F93EF931B
:1000E000FF932CB1E0910A01F0910B018091060180
:1000F00090910701E80FF91F2083809106019091EC
:10010000070101968032910560F490930701809376
:100110000601209108013091090182179307F1F43B
:100120000CC0109207011092060180910801909175
:1001300009011816190691F40EC001968032910536
:1001400028F4909309018093080108C010920901D6
:100150001092080103C081E090E0F3CFFF91EF918E
:100160009F918F913F912F910F900FBE0F901F90F5
:1001700018951F920F920FB60F9211242F933F9351
:100180008F939F93EF93FF9320919C00E091040144
:10019000F09105018091000190910101E80FF91F94
:1001A0002083809100019091010101968032910598
:1001B00060F490930101809300012091020130913D
:1001C000030182179307F1F40CC010920101109201
:1001D000000180910201909103011816190691F413
:1001E0000EC001968032910528F49093030180930C
:1001F000020108C0109203011092020103C081E0C5
:1002000090E0F3CFFF91EF919F918F913F912F91CC
:100210000F900FBE0F901F9018950E94650080E010
:0A0220008F5F83B9FDCFF894FFCF84
:00000001FF
