:100000000C9446000C9463000C9463000C94630001
:100010000C9463000C9463000C9463000C946300D4
:100020000C9463000C9463000C9463000C946300C4
:100030000C9463000C9463000C9463000C946300B4
:100040000C9463000C9463000C945A070C946300A6
:100050000C9463000C9463000C9463000C94630094
:100060000C9463000C9463000C9456070C9463008A
:100070000C9463000C9463000C94C2070C9463000E
:100080000C9463000C9463000C94630011241FBE55
:10009000CFEFD0E1DEBFCDBF11E0A0E0B1E0E4E200
:1000A000FDE102C005900D92A232B107D9F72CE014
:1000B000A2E2B1E001C01D92A032B207E1F70E94B6
:1000C000510E0C94900E0C940000AF92CF92DF92E0
:1000D000EF92FF920F931F93CF93DF93CDB7DEB7CD
:1000E0002E970FB6F894DEBF0FBECDBF9A838983DB
:1000F0007C836B834D833F832E8319870887FB8620
:10010000EA86DD86CC86AE8689819A8142962C85E8
:100110003D854E85B9010E94580189819A814885A3
:1001200059852E813F816B817C818A014D810E949E
:100130002A0826E131E089819A81FC0131832083FC
:1001400089819A812A853B85FC01308F278B8981A3
:100150009A8121E0FC01218F00002E960FB6F894C1
:10016000DEBF0FBECDBFDF91CF911F910F91FF90EA
:10017000EF90DF90CF90AF900895CF93DF9300D0B2
:1001800000D0CDB7DEB79C838B838B819C810E948E
:1001900021018B819C8121E0FC01218F1A8219822F
:1001A0008B819C81FC01818D8823A1F08B819C81B6
:1001B000FC018789908DFC01948581E08927882343
:1001C00079F38B819C810E943D018B819C81FC0194
:1001D000118EE6CF8B819C81FC01918D81E0892776
:1001E000882399F08B819C81FC018789908DFC018B
:1001F00084858823A9F28B819C810E9421018B81B7
:100200009C8121E0FC01218FCBCF8B819C81FC0163
:10021000808191810296FC01208131818B819C81BA
:10022000FC01468157818B819C81BA01F9010995B6
:10023000000000000F900F900F900F90DF91CF9172
:100240000895CF93DF9300D0CDB7DEB79A8389832B
:1002500089819A81429661E070E00E9495018981CE
:100260009A81FC018789908D21E0FC01258700009F
:100270000F900F90DF91CF910895CF93DF9300D02F
:10028000CDB7DEB79A83898389819A81429662E0ED
:1002900070E00E94950189819A81FC018789908D87
:1002A000FC01158600000F900F90DF91CF9108950B
:1002B000CF93DF9300D000D01F92CDB7DEB79A83E3
:1002C00089837C836B834D8389819A8127E330E026
:1002D000FC013383228389819A812B813C81FC013B
:1002E0003183208389819A81FC01828193812981D4
:1002F0003A81F90122813381F9012081622F2D8118
:10030000422F50E021E030E002C0220F331F4A9517
:10031000E2F7262BFC01208300000F900F900F9036
:100320000F900F90DF91CF910895CF93DF9300D07E
:1003300000D0CDB7DEB79A8389837C836B838981B4
:100340009A81FC0180819181FC01208131812F5FA4
:100350003F4FFC013183208300000F900F900F90DE
:100360000F90DF91CF910895CF93DF9300D000D00D
:10037000CDB7DEB79A8389837C836B8300000F90AF
:100380000F900F900F90DF91CF910895CF93DF934F
:10039000CDB7DEB72E970FB6F894DEBF0FBECDBF38
:1003A0009E878D871E821D820E945D0A8091A20B0E
:1003B000882329F40E94270381E08093A20B8D8576
:1003C0009E85892B41F084E090E02D853E85820F4B
:1003D000931F9E878D878D859E85892B09F4B8C0D4
:1003E0008D859E8587379A4008F0B2C08AE99BE0E8
:1003F0009C838B8380919A0B90919B0B9A8389832A
:100400000BC089819A819C838B8389819A81FC01AD
:10041000808191819A83898389819A81FC012281DB
:1004200033818D859E852817390738F489819A8113
:10043000FC0180819181892B21F789819A818E59D4
:100440009B4009F485C08B819C81FC012081318116
:1004500084E090E0820F931F9E838D8389819A812F
:10046000FC01208131818B819C81FC0131832083BF
:1004700089819A81FC01228133818D859E85281B8B
:10048000390B84E090E0880F991F8217930708F0DA
:100490004EC029813A818D859E85820F931F9A8750
:1004A000898789819A81FC01228133818D859E858E
:1004B000281B390B89859A85FC0133832283898126
:1004C0009A812D853E85FC013383228389859A8517
:1004D000FC01828193819C878B878AE99BE09887C6
:1004E0008F8307C08F819885FC01808191819887D7
:1004F0008F838F819885FC0180819181FC0122810D
:1005000033818B859C852817390760F38F81988507
:10051000FC012081318189859A85FC01318320830A
:100520008F81988529853A85FC013183208320912C
:1005300000013091010189819A81FC0182819381BE
:10054000A901481B590BCA01909301018093000136
:100550000E946A0A8D819E812E960FB6F894DEBFA6
:100560000FBECDBFDF91CF910895CF93DF93CDB76D
:10057000DEB72A970FB6F894DEBF0FBECDBF9A87BD
:10058000898789859A859C838B8389859A85892B20
:1005900009F453C084E090E09195819591092B81F5
:1005A0003C81820F931F9C838B838B819C819E83D4
:1005B0008D830E945D0A8D819E81FC0182819381E1
:1005C00098878F838AE99BE09A83898307C0898112
:1005D0009A81FC01808191819A83898389819A81A2
:1005E000FC0180819181FC01228133818F8198857A
:1005F0002817390760F389819A81FC0120813181B4
:100600008D819E81FC013183208389819A812D8196
:100610003E81FC01318320838D819E81FC012281FA
:1006200033818091000190910101820F931F90937B
:100630000101809300010E946A0A00002A960FB609
:10064000F894DEBF0FBECDBFDF91CF910895CF9359
:10065000DF9300D000D0CDB7DEB783E291E09A837C
:10066000898389819A8190939B0B80939A0B109236
:100670009D0B10929C0B87E79AE09093A10B8093BF
:10068000A00B10929F0B10929E0B89819A819C83E4
:100690008B838B819C8127E73AE0FC0133832283A3
:1006A0008B819C812EE93BE0FC013183208300009B
:1006B0000F900F900F900F90DF91CF910895CF93EF
:1006C000DF9300D0CDB7DEB79A83898389819A8181
:1006D0009C012D5F3F4F89819A81FC0132832183E8
:1006E00029813A818FEF9FEFDC01F90183839483A5
:1006F000A583B68389819A819C012D5F3F4F8981B3
:100700009A81FC013087278389819A819C012D5F22
:100710003F4F89819A81FC013287218789819A81A3
:10072000FC01108200000F900F90DF91CF9108958F
:10073000CF93DF9300D0CDB7DEB79A8389838981C9
:100740009A81FC011386128600000F900F90DF91B2
:10075000CF910895CF93DF9300D000D000D0CDB7D4
:10076000DEB79C838B837E836D838B819C81FC01B0
:10077000818192819A8389838D819E8129813A81A9
:10078000FC013583248389819A81FC01268137818C
:100790008D819E81FC013783268389819A81FC01AA
:1007A000868197812D813E81FC0135832483898157
:1007B0009A812D813E81FC01378326838D819E8124
:1007C0002B813C81FC01338722878B819C81FC013A
:1007D000808121E0280F8B819C81FC012083000017
:1007E00026960FB6F894DEBF0FBECDBFDF91CF9136
:1007F0000895CF93DF93CDB7DEB72A970FB6F8945D
:10080000DEBF0FBECDBF98878F837A8769878985C2
:100810009A85FC0180819181A281B3818B839C8325
:10082000AD83BE838B819C81AD81BE818F3F9F4F05
:10083000AF4FBF4F41F48F819885FC018185928530
:100840009A83898320C08F81988503969A838983B0
:1008500007C089819A81FC01848195819A8389836B
:1008600089819A81FC0184819581FC0120813181FB
:10087000428153818B819C81AD81BE818217930718
:10088000A407B50730F789819A81FC01248135815D
:1008900089859A85FC013583248389859A85FC01A5
:1008A0008481958129853A85FC0137832683898552
:1008B0009A8529813A81FC013783268389819A812F
:1008C00029853A85FC013583248389859A852F8182
:1008D0003885FC01338722878F819885FC018081D0
:1008E00021E0280F8F819885FC01208300002A9643
:1008F0000FB6F894DEBF0FBECDBFDF91CF91089544
:10090000CF93DF9300D000D0CDB7DEB79C838B832D
:100910008B819C81FC01828593859A8389838B815D
:100920009C81FC01848195812B813C81F901268188
:100930003781FC01378326838B819C81FC01868172
:1009400097812B813C81F90124813581FC0135831C
:10095000248389819A81FC01218132818B819C8150
:100960002817390751F48B819C81FC01268137813E
:1009700089819A81FC01328321838B819C81FC01D6
:100980001386128689819A81FC0180812FEF280FBE
:1009900089819A81FC01208389819A81FC0180816F
:1009A0000F900F900F900F90DF91CF910895CF93FC
:1009B000DF9300D0CDB7DEB79A83898389819A818E
:1009C0000E94C6010F900F90DF91CF910895CF93B1
:1009D000DF93CDB7DEB70000DF91CF910895CF93BD
:1009E000DF93CDB7DEB728970FB6F894DEBF0FBE02
:1009F000CDBF9C838B837E836D8358874F838B8190
:100A00009C8190931F0C80931E0C8B819C8121E113
:100A1000FC0120838B819C8101979C838B838B813C
:100A20009C8122E2FC0120838B819C8101979C8325
:100A30008B838B819C8123E3FC0120838B819C81B0
:100A400001979C838B838D819E819A8389832981E1
:100A50008B819C81FC0120838B819C8101979C83ED
:100A60008B8389819A81892F99279A838983298108
:100A70008B819C81FC0120838B819C8101979C83CD
:100A80008B838B819C81FC0110828B819C810197DF
:100A90009C838B838B819C8120E8FC0120838B814C
:100AA0009C8101979C838B838B819C81FC011082AC
:100AB0008B819C8101979C838B838B819C8122E01D
:100AC000FC0120838B819C8101979C838B838B818C
:100AD0009C8123E0FC0120838B819C8101979C8376
:100AE0008B838B819C8124E0FC0120838B819C8102
:100AF00001979C838B838B819C8125E0FC01208363
:100B00008B819C8101979C838B838B819C8126E0C8
:100B1000FC0120838B819C8101979C838B838B813B
:100B20009C8127E0FC0120838B819C8101979C8321
:100B30008B838B819C8128E0FC0120838B819C81AD
:100B400001979C838B838B819C8129E0FC0120830E
:100B50008B819C8101979C838B838B819C8120E17D
:100B6000FC0120838B819C8101979C838B838B81EB
:100B70009C8121E1FC0120838B819C8101979C83D6
:100B80008B838B819C8122E1FC0120838B819C8162
:100B900001979C838B838B819C8123E1FC012083C3
:100BA0008B819C8101979C838B838B819C8124E129
:100BB000FC0120838B819C8101979C838B838B819B
:100BC0009C8125E1FC0120838B819C8101979C8382
:100BD0008B838B819C8126E1FC0120838B819C810E
:100BE00001979C838B838B819C8127E1FC0120836F
:100BF0008B819C8101979C838B838B819C8128E1D5
:100C0000FC0120838B819C8101979C838B838B814A
:100C10009C8129E1FC0120838B819C8101979C832D
:100C20008B838B819C8120E2FC0120838B819C81C2
:100C300001979C838B838B819C8121E2FC01208323
:100C40008B819C8101979C838B838B819C8122E289
:100C5000FC0120838B819C8101979C838B838B81FA
:100C60009C8123E2FC0120838B819C8101979C83E2
:100C70008B838F8198859A83898329818B819C813D
:100C8000FC0120838B819C8101979C838B838981CC
:100C90009A81892F99279A83898329818B819C81C5
:100CA000FC0120838B819C8101979C838B838B81AA
:100CB0009C8126E2FC0120838B819C8101979C838F
:100CC0008B838B819C8127E2FC0120838B819C811B
:100CD00001979C838B838B819C8128E2FC0120837C
:100CE0008B819C8101979C838B838B819C8129E2E2
:100CF000FC0120838B819C8101979C838B838B815A
:100D00009C8120E3FC0120838B819C8101979C8343
:100D10008B838B819C8121E3FC0120838B819C81CF
:100D200001979C838B838B819C8128960FB6F894C6
:100D3000DEBF0FBECDBFDF91CF9108950F920FB6EA
:100D4000F8940F921F9211242F923F924F925F922C
:100D50006F927F928F929F92AF92BF92CF92DF92CB
:100D6000EF92FF920F931F932F933F934F935F93B5
:100D70006F937F938F939F93AF93BF93CF93DF93A3
:100D8000EF93FF93A091B10BB091B20B0DB60D9202
:100D90000EB60D920E942E0CA091B10BB091B20B29
:100DA000CD91CDBFDD91DEBFFF91EF91DF91CF916E
:100DB000BF91AF919F918F917F916F915F914F9173
:100DC0003F912F911F910F91FF90EF90DF90CF9067
:100DD000BF90AF909F908F907F906F905F904F905B
:100DE0003F902F901F900F900FBE0F90089500001E
:100DF0000F920FB6F8940F921F9211242F923F92E8
:100E00004F925F926F927F928F929F92AF92BF921A
:100E1000CF92DF92EF92FF920F931F932F933F9306
:100E20004F935F936F937F938F939F93AF93BF93F2
:100E3000CF93DF93EF93FF93A091B10BB091B20BDF
:100E40000DB60D920EB60D920E94140B882311F070
:100E50000E942E0CA091B10BB091B20BCD91CDBFE1
:100E6000DD91DEBFFF91EF91DF91CF91BF91AF9107
:100E70009F918F917F916F915F914F913F912F91B2
:100E80001F910F91FF90EF90DF90CF90BF90AF90A8
:100E90009F908F907F906F905F904F903F902F909A
:100EA0001F900F900FBE0F90089500000E94F8064B
:100EB000189500001F920F9200905F000F9211246E
:100EC0002F933F938F939F93EF93FF93CF93DF9352
:100ED000CDB7DEB72091A30B3091A40B8091A70B67
:100EE0009091A80B820F931F2CE230E0F901208132
:100EF000FC0120838091A70B9091A80B0196909301
:100F0000A80B8093A70B8091A70B9091A80B21E0D1
:100F1000809708F420E0222321F01092A80B109271
:100F2000A70B2091A70B3091A80B8091A50B909156
:100F3000A60B28173907B9F48091A50B9091A60B41
:100F400001969093A60B8093A50B8091A50B909191
:100F5000A60B21E0809708F420E0222321F01092D4
:100F6000A60B1092A50B0000DF91CF91FF91EF919E
:100F70009F918F913F912F910F9000925F000F9062
:100F80001F9018951F920F9200905F000F921124EE
:100F90002F933F938F939F93EF93FF93CF93DF9381
:100FA000CDB7DEB72091A90B3091AA0B8091AD0B84
:100FB0009091AE0B820F931F2CE930E0F901208154
:100FC000FC0120838091AD0B9091AE0B0196909324
:100FD000AE0B8093AD0B8091AD0B9091AE0B21E0E9
:100FE000809708F420E0222321F01092AE0B10929B
:100FF000AD0B2091AD0B3091AE0B8091AB0B90916E
:10100000AC0B28173907B9F48091AB0B9091AC0B5E
:1010100001969093AC0B8093AB0B8091AB0B9091AE
:10102000AC0B21E0809708F420E0222321F01092FD
:10103000AC0B1092AB0B0000DF91CF91FF91EF91C1
:101040009F918F913F912F910F9000925F000F9091
:101050001F901895AF92BF92CF92DF92EF92FF92BE
:101060000F931F93CF93DF93CDB7DEB72A970FB6B9
:10107000F894DEBF0FBECDBF9B838A837D836C83D4
:101080004E8338872F831A8709872EE131E08A81C2
:101090009B81FC01318320838A819B81BC016E5F2F
:1010A0007F4F2A813B814F8158858C819D81A12C66
:1010B000B12CC12CD12C7B010E81BC0183EB98E0BB
:1010C0000E942C0989838A819B8129853A85FC01AC
:1010D000378326838A819B812F813885FC01318764
:1010E00020872091AF0B3091B00B8A819B81FC014E
:1010F000358324838A819B819093B00B8093AF0BBF
:101100008A819B81FC0114868A819B81FC01158662
:1011100080911E0C90911F0C019690931F0C809350
:101120001E0C20911E0C30911F0C8A819B81FC01AA
:10113000338722878A819B81FC0116861786108A55
:10114000118A00002A960FB6F894DEBF0FBECDBFFD
:10115000DF91CF911F910F91FF90EF90DF90CF9093
:10116000BF90AF900895CF93DF9300D0CDB7DEB797
:101170009A83898389819A810E94C40800000F9014
:101180000F90DF91CF910895CF93DF9300D0CDB72B
:10119000DEB79A83898389819A81FC01808191815C
:1011A000FC012081318189819A81F9010995898128
:1011B0009A81FC01138212826FEF7FEFCB010E94B4
:1011C0000F0AFACFCF93DF9300D000D0CDB7DEB7B0
:1011D0009A8389837C836B8389819A81FC018281D4
:1011E00093810E94F50A9C018B819C81B9010E9428
:1011F000B4018B819C81FC01808191810296FC016C
:10120000208131818B819C8169E0F9010995898177
:101210009A81FC01828193810E94F50A0E94870EC7
:1012200021E0089708F020E0222371F08B819C8157
:10123000FC01808191810296FC01208131818B81AA
:101240009C8169E0F901099500000F900F900F90C3
:101250000F90DF91CF910895AF92BF92CF92DF921E
:10126000EF92FF920F931F93CF93DF93CDB7DEB72B
:1012700064970FB6F894DEBF0FBECDBF9F838E83F9
:10128000798768875B874A873D872C870E87F88A2E
:10129000EF86DA8AC98ABC8AAB8A29893A898A8523
:1012A0009B85B9010E94CD0D9B838A838A819B8196
:1012B000892B09F48EC08A819B81FC01238D348D9A
:1012C0008A859B850197820F931F9D838C834A8516
:1012D0005B852B893C89688579858A819B818A0118
:1012E0004E850E94980C4C855D852E813F818C81B6
:1012F0009D81B9010E94EF049C018A819B81FC01C0
:10130000318320838F859889892B39F08F8598893F
:101310002A813B81FC01318320830FB6F8940F9220
:101320008091040C8F5F8093040C8091B10B90919D
:10133000B20B892B69F48A819B819093B20B8093C5
:10134000B10B8091040C8130B1F40E942C0D13C0BC
:1013500080910A0C882379F48091B10B9091B20BA3
:10136000FC01928D8E85891730F08A819B81909344
:10137000B20B8093B10B80910E0C8F5F80930E0C9B
:101380008A819B81FC01928D8091090C891730F430
:101390008A819B81FC01828D8093090C8A819B81CB
:1013A000AC014E5F5F4F8A819B81FC01828D282FAB
:1013B00030E06BE0629FC001639F900D11248D545B
:1013C000944FBA010E94AA0381E089830F900FBE57
:1013D00002C08FEF89838981813079F480910A0C72
:1013E000882359F08091B10B9091B20BFC01928D42
:1013F0008E85981710F40E949E06898164960FB618
:10140000F894DEBF0FBECDBFDF91CF911F910F913A
:10141000FF90EF90DF90CF90BF90AF900895CF9363
:10142000DF93CDB7DEB729970FB6F894DEBF0FBEB6
:10143000CDBF6E837F838887998719828E819F8134
:10144000A885B985892B8A2B8B2B41F10E945D0AD7
:101450002091050C3091060C4091070C5091080C1E
:101460008E819F81A885B985820F931FA41FB51F08
:101470008A839B83AC83BD838091B10B9091B20B27
:1014800002960E9480048A819B81AC81BD81BC014F
:10149000CD010E94630D0E946A0A89838981882395
:1014A00011F40E949E06000029960FB6F894DEBF44
:1014B0000FBECDBFDF91CF910895CF93DF93CDB70E
:1014C000DEB780910F0C8F5F80930F0C0000DF91CF
:1014D000CF910895CF93DF9300D01F92CDB7DEB7A1
:1014E00019820FB6F8940F9280910F0C815080935F
:1014F0000F0C80910F0C882309F06EC08091040CB2
:10150000882309F469C046C08091000C9091010CB9
:10151000FC01808591859B838A838A819B810E96BD
:101520000E9480048A819B8102960E9480048A81A5
:101530009B81FC01928D8091090C891730F48A817E
:101540009B81FC01828D8093090C8A819B81AC0177
:101550004E5F5F4F8A819B81FC01828D282F30E096
:101560006BE0629FC001639F900D11248D54944FD6
:10157000BA010E94AA038A819B81FC01228D80917D
:10158000B10B9091B20BFC01828D281718F081E00D
:1015900080930C0C8091F90B882309F0B5CF8091D2
:1015A0000B0C882389F00CC00E94140B882319F0BF
:1015B00081E080930C0C80910B0C815080930B0C7C
:1015C00080910B0C882381F780910C0C813021F4E1
:1015D00081E089830E949E060F900FBE89810F9043
:1015E0000F900F90DF91CF910895CF93DF9300D0AC
:1015F00000D0CDB7DEB79C838B838B819C81892BF8
:1016000029F48091B10B9091B20B02C08B819C8127
:101610009A83898389819A814D960F900F900F90BC
:101620000F90DF91CF910895CF93DF93CDB7DEB7C1
:101630002D970FB6F894DEBF0FBECDBF19828091F3
:101640000F0C882309F0F5C08091050C9091060CD1
:10165000A091070CB091080C0196A11DB11D8093BB
:10166000050C9093060CA093070CB093080C809186
:10167000050C9091060CA091070CB091080C8A8380
:101680009B83AC83BD838A819B81AC81BD81892B87
:101690008A2B8B2BD9F48091F50B9091F60B9F83BD
:1016A0008E838091F70B9091F80B9093F60B8093BB
:1016B000F50B8E819F819093F80B8093F70B8091AF
:1016C0000D0C8F5F80930D0C0E94170E809102010C
:1016D00090910301A0910401B09105012A813B8101
:1016E0004C815D81281739074A075B0708F48AC0D7
:1016F0008091F50B9091F60BFC018081882361F4B9
:101700008FEF9FEFDC018093020190930301A09380
:101710000401B093050176C08091F50B9091F60B12
:10172000FC0187819085FC01808591859987888758
:1017300088859985FC0182819381A481B5818A87FE
:101740009B87AC87BD872A813B814C815D818A85DF
:101750009B85AC85BD85281739074A075B0768F468
:101760008A859B85AC85BD8580930201909303019A
:10177000A0930401B093050145C088859985029620
:101780000E94800488859985FC01808D918D892B2C
:1017900029F0888599850E960E9480048885998510
:1017A000FC01928D8091090C891730F48885998508
:1017B000FC01828D8093090C88859985AC014E5F70
:1017C0005F4F88859985FC01828D282F30E06BE082
:1017D000629FC001639F900D11248D54944FBA01F4
:1017E0000E94AA0388859985FC01228D8091B10B06
:1017F0009091B20BFC01828D281708F479CF81E01B
:10180000898376CF8091B10B9091B20BFC01828DD0
:10181000282F30E04BE0429FC001439F900D1124E0
:101820008D54944FFC018081823040F081E08983A7
:1018300005C080910B0C8F5F80930B0C80910C0C7A
:10184000882311F081E0898389812D960FB6F89461
:10185000DEBF0FBECDBFDF91CF910895CF93DF9351
:1018600000D0CDB7DEB780910F0C882321F081E046
:1018700080930C0C57C010920C0C05C08091090C81
:1018800081508093090C8091090C282F30E04BE0A7
:10189000429FC001439F900D11248D54944FFC0131
:1018A0008081882359F38091090C282F30E04BE088
:1018B000429FC001439F900D11248D54944F9A83F1
:1018C000898389819A81FC0181819281FC01248133
:1018D000358189819A81FC013283218389819A81B2
:1018E000FC012181328189819A8103962817390769
:1018F00069F489819A81FC0181819281FC012481B2
:10190000358189819A81FC013283218389819A8181
:10191000FC0181819281FC01808591859093B20BBD
:101920008093B10B00000F900F90DF91CF9108953D
:10193000EF92FF920F931F93CF93DF93CDB7DEB754
:101940002A970FB6F894DEBF0FBECDBF9B838A8364
:101950007D836C834E8338872F831A87098719828A
:1019600021C08981882F90E02981222F30E04C818D
:101970005D81240F351FF90140812A813B81820F4F
:10198000931F4D96FC0140838981882F90E02C8124
:101990003D81820F931FFC018081882339F089816A
:1019A0008F5F898389818A30E0F201C000008A81DB
:1019B0009B81FC0116A28E81843010F083E08E831F
:1019C0008A819B812E81FC01228F8A819B812E81BD
:1019D000FC0127A38A819B81FC0110A68A819B813F
:1019E00002960E9498038A819B810E960E9498031A
:1019F0008A819B812A813B81FC01338722878E81EA
:101A0000882F90E0A0E0B0E024E030E040E050E03B
:101A100079018A01E81AF90A0A0B1B0BD801C701E0
:101A20002A813B81F90186879787A08BB18B8A81B8
:101A30009B812A813B81FC01378B268B00002A96F3
:101A40000FB6F894DEBF0FBECDBFDF91CF911F91CF
:101A50000F91FF90EF900895CF93DF931F92CDB732
:101A6000DEB7198210C08981282F30E04BE0429FF9
:101A7000C001439F900D11248D54944F0E945F0329
:101A800089818F5F89838981843068F38FED9BE042
:101A90000E945F038AEE9BE00E945F0389EF9BE058
:101AA0000E945F038FED9BE09093F60B8093F50B04
:101AB0008AEE9BE09093F80B8093F70B00000F9059
:101AC000DF91CF910895CF93DF9300D000D0CDB7B1
:101AD000DEB769837A838B839C832091B10B30912D
:101AE000B20B89819A81AB81BC81F9018283938396
:101AF000A483B5838091050C9091060CA091070CEE
:101B0000B091080C29813A814B815C8128173907F3
:101B10004A075B0778F48091B10B9091B20B9C015E
:101B20002E5F3F4F8091F70B9091F80BB9010E9407
:101B3000F9032BC08091B10B9091B20B9C012E5FE9
:101B40003F4F8091F50B9091F60BB9010E94F9037C
:101B50008091020190910301A0910401B0910501CF
:101B600029813A814B815C81281739074A075B0735
:101B700060F489819A81AB81BC818093020190934A
:101B80000301A0930401B093050100000F900F9092
:101B90000F900F90DF91CF910895CF93DF9300D0F6
:101BA00000D000D0CDB7DEB79C838B837E836D835E
:101BB00089E290E00E94C6019A83898389819A8193
:101BC000892B51F18D819E81892B29F48B819C81F8
:101BD0000E94C60102C08D819E8129813A81F9014E
:101BE000948F838F89819A81FC01838D948D892BB9
:101BF00039F489819A810E94B5021A8219820CC037
:101C000089819A81FC01838D948D2B813C81A9016E
:101C100065EA70E00E94800E89819A8126960FB64F
:101C2000F894DEBF0FBECDBFDF91CF910895CF9363
:101C3000DF9300D0CDB7DEB78091F50B9091F60B16
:101C4000FC018081882361F48FEF9FEFDC0180939A
:101C5000020190930301A0930401B09305011BC0FE
:101C60008091F50B9091F60BFC0187819085FC012A
:101C7000808591859A83898389819A81FC018281FB
:101C80009381A481B5818093020190930301A09375
:101C90000401B093050100000F900F90DF91CF91E8
:101CA00008958F929F92AF92CF92DF92EF92FF9220
:101CB0000F931F93CF93DF9300D0CDB7DEB78AE1A8
:101CC00090E00E94D7044C010F2EF5E0AF2EF02DCE
:101CD0000F2EFAE4CF2ED12CF02D0F2EF0E1EF2EA7
:101CE000FCE0FF2EF02D00E010E028EC30E041E0B9
:101CF00066E071E0C4010E9465009A828982FFCF8C
:101D0000DC0101C06D9341505040E0F70895FC01A3
:101D100001900020E9F7809590958E0F9F1F089500
:041D2000F894FFCF65
:101D2400770AFFFFFFFF66696674685F7768656519
:101D34006C0000000000BD00E20800000000E704A1
:021D4400E208B3
:00000001FF
