S00D00004D453530372E73726563E9
S11300000C9446000C9463000C9463000C946300FD
S11300100C9463000C9463000C9463000C946300D0
S11300200C9463000C9463000C9463000C946300C0
S11300300C9463000C9463000C9463000C946300B0
S11300400C9463000C9463000C940B060C946300F2
S11300500C9463000C9463000C9463000C94630090
S11300600C9463000C9463000C9408060C946300D5
S11300700C9463000C9463000C945E060C9463006F
S11300800C9463000C9463000C94630011241FBE51
S1130090CFEFD0E1DEBFCDBF11E0A0E0B1E0E4EAF4
S11300A0F6E102C005900D92AE39B107D9F72CE004
S11300B0AEE9B1E001C01D92AC39B207E1F70E948C
S11300C0C10A0C94500B0C9400009F92AF92BF9203
S11300D0CF92DF92EF92FF920F931F93CF93DF9310
S11300E0EC016B01942E59010E9414029501492DD3
S11300F0B601CE010E94B2068AE091E0998388831A
S1130100FB8AEA8A81E08C8BDF91CF911F910F915A
S1130110FF90EF90DF90CF90BF90AF909F900895A5
S1130120CF93DF93EC0161E070E00E941502EA894D
S1130130FB8981E08587DF91CF910895CF93DF9389
S1130140EC0162E070E00E941502EA89FB891586E1
S1130150DF91CF910895EC010E94900081E08C8B97
S113016011E08C89882351F0EA89FB898485811107
S1130170F8CFCE010E949E001C8AF3CFEA89FB8946
S11301808485882371F3CE010E9490001C8BE9CFF3
S1130190CF93DF93EC0161E070E00E941502EA89DD
S11301A0FB8981E08387DF91CF9108959F92AF927D
S11301B0BF92CF92DF92EF92FF920F931F93CF9350
S11301C0DF93EC016B01942E59010E9414029501F6
S11301D0492DB601CE010E94B20682E191E09983D5
S11301E08883FB8AEA8ACE010E94C800EA89FB89D7
S11301F081E082878C87DF91CF911F910F91FF90CF
S1130200EF90DF90CF90BF90AF909F900895CF93E1
S1130210DF93EC0162E070E00E941502EA89FB8939
S113022082E08387DF91CF910895CF93DF93EC0130
S113023063E070E00E941502EA89FB8983E083870A
S1130240DF91CF910895FF920F931F93CF93DF9384
S1130250EC010E94C80012E001E00F2EF3E0FF2E33
S1130260F02D4C85242F30E0EA89FB895285852FB7
S1130270052E000C990B28173907E9F3413071F466
S1130280523029F4CE010E9407011C87EACF533073
S113029041F7CE010E9415011C87E3CF423071F46F
S11302A0513029F4CE010E94C8000C87DACF5330B4
S11302B0C1F6CE010E941501FC86D3CF433071F400
S11302C0513029F4CE010E94C8000C87CACF5230A5
S11302D041F6CE010E9407011C87C3CF6E817F8146
S11302E0E881F9810280F381E02DCE010995DF9147
S11302F0CF911F910F91FF90089508950895089547
S1130300CF92DF92FF920F931F93CF93DF9300D08E
S1130310CDB7DEB78C01FF24F3946C0182E1C80EE3
S1130320D11CD8011C968C91813091F422E0AE014D
S11303304F5F5F4F6BE1C6010E947103D8015B966A
S1130340ED91FC915C9789819A8191878087E9CFAF
S1130350811103C0F801F486E4CFD80116966D919B
S11303607C911797ED91FC910280F381E02DC801F7
S113037009950F900F90DF91CF911F910F91FF90EE
S1130380DF90CF9008950E94DD04089542970E9463
S1130390DD0408956F927F928F929F92AF92CF92D5
S11303A0DF92EF92FF920F931F93CF93DF93CDB71A
S11303B0DEB73C010E94B2062A2DB701A601C30193
S11303C042960E94A9028AE191E0F301918380831D
S11303D086E291E0938B828B948E838E1486DF91D8
S11303E0CF911F910F91FF90EF90DF90CF90AF903E
S11303F09F908F907F906F9008950895EF92FF9251
S11304000F931F93CF93DF93EC010E94B20684E312
S113041091E099838883FB8AEA8ADF91CF911F91C7
S11304200F91FF90EF90089508950895EC01EA89E3
S1130430FB8964817581CE010E941502F8CF9F92D9
S1130440AF92BF92CF92DF92EF92FF920F931F93DE
S1130450CF93DF93EC016B01942E59010E94140297
S11304609501492DB601CE010E94B2068CE391E0BC
S113047099838883FB8AEA8A60E070E0CE010E9457
S11304801502DF91CF911F910F91FF90EF90DF90B4
S1130490CF90BF90AF909F9008950895EF92FF92F0
S11304A00F931F93CF93DF93EC010E94B20684E471
S11304B091E099838883FB8AEA8ADF91CF911F9127
S11304C00F91FF90EF90089508950F931F93CF938A
S11304D0DF938C01EB0188E2FB0111928A95E9F725
S11304E04BE050E068E471E0CE010E94410B1B86B2
S11304F081E090E0A0E0B0E08C879D87AE87BF8765
S1130500F80184819581A681B781888B998BAA8B08
S1130510BB8B83E090E0A0E0B0E08C8B9D8BAE8B36
S1130520BF8B188E198E1A8E1B8E1C8E1D8E1E8EDE
S11305301F8E8AE097EDA3E2BCE388A399A3AAA344
S1130540BBA3DF91CF911F910F9108950E94DD0409
S11305500895FC0183E591E091838083448355836E
S11305606683778323830895CF93DF9300D000D0ED
S113057000D0CDB7DEB72CE0DC011D922A95E9F757
S1130580FE01319626E0DF011D922A95E9F74431F8
S1130590D9F028F44830B9F14E3041F041C0483226
S11305A091F14E3281F14A31E1F03AC0FC011082FE
S11305B01182128213821482158216821782108687
S11305C01186128613862CC0DC0114961D921D928E
S11305D01D921C921797FC011086118612861386B1
S11305E01FC0DC011D921D921D921C921397FC01E9
S11305F0148215821682178218961D921D921D92DE
S11306001C921B970DC0FC0110821182128213826E
S1130610148215821682178210861186128613861A
S113062026960FB6F894DEBF0FBECDBFDF91CF91F3
S113063008950F931F93CF93DF93CDB7DEB72C9715
S11306400FB6F894DEBF0FBECDBF8B0124E2FB01D1
S113065011922A95E9F744E250E060E070E0F80175
S11306604083518362837383FC0144815581668195
S11306707781F801448355836683778343E050E0B0
S113068060E070E040875187628773874AE1BC016C
S1130690CE0101960E94B40289819A81AB81BC810A
S11306A0F801848B958BA68BB78B8D819E81AF814E
S11306B0B885808F918FA28FB38F89859A85AB85FA
S11306C0BC85848F958FA68FB78F81E02C960FB64B
S11306D0F894DEBF0FBECDBFDF91CF911F910F9174
S11306E0089581E0089508950F931F93CF93DF93A6
S11306F0EC010E94A30880919E0181111DC0E3EAD0
S1130700F1E088EA91E09183808313821282EFE919
S1130710F1E087E79AE09383828311821082A7EA4B
S1130720B1E014969C938E9313971296FC93EE93D8
S1130730119781E080939E01209709F45FC09E0188
S11307402C5F3F4F2396C637DA4008F05AC0E09139
S1130750A301F091A401A3EAB1E002C0DF01FC010E
S1130760828193818217930720F48081918100977D
S1130770A9F7C1E0EF39FC0709F446C0CD91DC913B
S113078011978E010C5F1F4F808191818D939C93F3
S113079082819381821B930B8930910510F1BF01F3
S11307A0620F731FDB0113969C938E93129733830E
S11307B0228312964D915C91139783EA91E001C0D4
S11307C0CD01EC01A881B98112962D913C9113972A
S11307D024173507A8F3EB01B983A883DC016D93D3
S11307E07C93809100019091010122813381821BCD
S11307F0930B909301018093000108C000E010E086
S113080005C000E010E002C000E010E00E94B4095E
S1130810C801DF91CF911F910F9108950F931F93FA
S1130820CF93DF93009741F1EC018C01045011093F
S11308300E94A308F80142815381A3EAB1E001C0F8
S1130840DF01ED91FC911197228133812417350743
S1130850B8F32497F983E8830D931C932091000146
S1130860309101018A819B81820F931F9093010132
S1130870809300010E94B409DF91CF911F910F91E1
S11308800895FC010396928381834FEF5FEFBA01D1
S11308904383548365837683908787839287818794
S11308A010820895FC01138612860895CF93DF9376
S11308B09C01FB01DC011196CD91DC911297D5834B
S11308C0C4838E819F81978386838E819F81DC017F
S11308D015967C936E9314977F836E833387228758
S11308E0F90180818F5F8083DF91CF9108950F9309
S11308F01F93CF93DF93EB01088119812A813B81F8
S11309000F3F4FEF14072407340721F4FC01A1859E
S1130910B28511C0DC01139601C0DF011496ED917C
S1130920FC911597408151816281738104171507E9
S11309302607370790F71496ED91FC911597FD83E0
S1130940EC83D783C683BF83AE831596DC93CE93A3
S113095014979B878A87FC0120812F5F2083DF9176
S1130960CF911F910F910895CF93DF93FC01A2853E
S1130970B385C481D581868197819F838E83C68107
S1130980D781848195819D838C8311968D919C91CF
S11309901297E817F90731F48681978112969C9390
S11309A08E931197138612868C9181508C93DF91CC
S11309B0CF9108950E9474030895009711F00E9446
S11309C00E040895089590939B0C80939A0C31E142
S11309D0FC013083319722E220833197A3E3A08383
S11309E0319760833197708331971082319760E833
S11309F0608331971082319762E06083319763E0BE
S1130A006083319764E06083319765E06083319758
S1130A1066E06083319767E06083319768E06083C4
S1130A20319769E06083319760E160833197308367
S1130A30319732E13083319733E13083319734E1B8
S1130A403083319735E13083319736E13083319704
S1130A5037E13083319738E13083319739E130839E
S1130A60319730E23083319731E2308331972083FC
S1130A70319723E220833197408331975083319714
S1130A8026E22083319727E22083319728E22083CE
S1130A90319729E22083319720E32083319721E3A2
S1130AA02083869708950F920FB6F8940F921F92A1
S1130AB011242F923F924F925F926F927F928F9266
S1130AC09F92AF92BF92CF92DF92EF92FF920F93D9
S1130AD01F932F933F934F935F936F937F938F93C2
S1130AE09F93AF93BF93CF93DF93EF93FF93A09123
S1130AF08A0CB0918B0C0DB60D920EB60D920E941D
S1130B00630AA0918A0CB0918B0CCD91CDBFDD917D
S1130B10DEBFFF91EF91DF91CF91BF91AF919F9194
S1130B208F917F916F915F914F913F912F911F9181
S1130B300F91FF90EF90DF90CF90BF90AF909F9078
S1130B408F907F906F905F904F903F902F901F9069
S1130B500F900FBE0F9008950F920FB6F8940F9256
S1130B601F9211242F923F924F925F926F927F9225
S1130B708F929F92AF92BF92CF92DF92EF92FF92A9
S1130B800F931F932F933F934F935F936F937F9391
S1130B908F939F93AF93BF93CF93DF93EF93FF9381
S1130BA0A0918A0CB0918B0C0DB60D920EB60D92DD
S1130BB00E94B10881110E94630AA0918A0CB0912D
S1130BC08B0CCD91CDBFDD91DEBFFF91EF91DF9115
S1130BD0CF91BF91AF919F918F917F916F915F91D1
S1130BE04F913F912F911F910F91FF90EF90DF90C4
S1130BF0CF90BF90AF909F908F907F906F905F90B9
S1130C004F903F902F901F900F900FBE0F9008951C
S1130C100E94AC0518951F920F920FB60F921124E3
S1130C202F933F938F939F93EF93FF932CB1E09176
S1130C30290CF0912A0C8091250C9091260CE80F38
S1130C40F91F20838091250C9091260C0196803207
S1130C50910560F49093260C8093250C2091270C29
S1130C603091280C82179307F1F40CC01092260CD3
S1130C701092250C8091270C9091280C18161906B7
S1130C8091F40EC001968032910528F49093280CBB
S1130C908093270C08C01092280C1092270C03C0D4
S1130CA081E090E0F3CFFF91EF919F918F913F917D
S1130CB02F910F900FBE0F901F9018951F920F92B7
S1130CC00FB60F9211242F933F938F939F93EF931B
S1130CD0FF9320919C00E091230CF091240C8091CF
S1130CE01F0C9091200CE80FF91F208380911F0C9A
S1130CF09091200C01968032910560F49093200C21
S1130D0080931F0C2091210C3091220C82179307A1
S1130D10F1F40CC01092200C10921F0C8091210C45
S1130D209091220C1816190691F40EC00196803287
S1130D30910528F49093220C8093210C08C0109202
S1130D40220C1092210C03C081E090E0F3CFFF91BC
S1130D50EF919F918F913F912F910F900FBE0F9024
S1130D601F9018956F927F928F929F92AF92BF922D
S1130D70CF92DF92EF92FF920F931F93CF93DF9363
S1130D80EC0149013801FC0181E691E081939193E2
S1130D90A12CB12CC12CD12C7F01042F9E01A401C4
S1130DA081E197E00E9493077F826E82998688860C
S1130DB080912B0C90912C0C9D838C83D0932C0CC4
S1130DC0C0932B0C1C861D8680919A0C90919B0CD1
S1130DD0019690939B0C80939A0C9B878A871E861E
S1130DE01F86188A198ADF91CF911F910F91FF9066
S1130DF0EF90DF90CF90BF90AF909F908F907F90B7
S1130E006F900895EC01E881F9810190F081E02D63
S1130E1009951B821A826FEF7FEFCB010E94350A7E
S1130E20FACF0E9402070F931F93CF93DF938C0195
S1130E30EB01FC01828193810E94A908BC01CE01CF
S1130E400E947303E881F9810280F381E02D69E057
S1130E50CE010995F801828193810E94A908FC01C1
S1130E6001900020E9F73197E81BF90B389740F41B
S1130E70E881F9810280F381E02D69E0CE010995D2
S1130E80DF91CF911F910F910895CF92DF92EF924E
S1130E90FF926B017C01E0918A0CF0918B0C6283D0
S1130EA07383848395838091340C9091350CA09145
S1130EB0360CB091370CC816D906EA06FB0668F45E
S1130EC060918A0C70918B0C8091440C9091450C2C
S1130ED06E5F7F4F0E94770421C060918A0C7091ED
S1130EE08B0C8091460C9091470C6E5F7F4F0E9453
S1130EF077048091020190910301A0910401B091C3
S1130F000501C816D906EA06FB0640F4C0920201A0
S1130F10D0920301E0920401F0920501FF90EF905A
S1130F20DF90CF9008954F925F926F927F928F924D
S1130F309F92AF92BF92CF92DF92EF92FF920F9364
S1130F401F93CF93DF934C01EB015A01290189E2EE
S1130F5090E00E9474033C01009709F4E2C0C114BC
S1130F60D10409F0D9C0C5010E947403F301948F20
S1130F70838F009721F4C3010E940E04D2C0A501FF
S1130F8065EA70E00E943A0BF1E0AF1AB108F30190
S1130F90838D948DA80EB91E8881858F88818823BE
S1130FA081F0D3015E96FE0131969E01265F3F4F8C
S1130FB0EF0181918D938881882319F0E217F3075B
S1130FC0B9F7F30116A2102F043008F013E0F3016F
S1130FD0128F17A310A6E3012296CE010E94520499
S1130FE0C3010E960E945204F3017386628684E064
S1130FF090E0A0E0B0E0811B9109A109B1098687C6
S11310009787A08BB18B778A668AA201B401C50148
S11310100E94E304F30191838083E114F10419F045
S1131020F701718260820FB6F8940F928091380CA8
S11310308F5F8093380C80918A0C90918B0C892B54
S113104089F570928B0C60928A0C8091380C8130F7
S1131050C1F58EE59CE00E94410489E69CE00E9473
S1131060410484E79CE00E9441048FE79CE00E94D5
S1131070410483E59CE00E94410488E49CE00E94D2
S1131080410489E39CE00E94410483E59CE0909341
S1131090470C8093460C88E49CE09093450C809325
S11310A0440C0FC08091320C81110BC0E0918A0C6A
S11310B0F0918B0C828D081720F070928B0C60924B
S11310C08A0C80912E0C8F5F80932E0CF301828DFD
S11310D09091330C981710F48093330CFBE08F9F9E
S11310E0C0011124BE01825A934F0E9456040F90EE
S11310F00FBE8091320C882359F0E0918A0CF09154
S11311008B0C828D801730F40E94530581E00AC055
S113111081E008C081E006C0FC01D48EC38EC60104
S11311202ECF8FEFDF91CF911F910F91FF90EF9012
S1131130DF90CF90BF90AF909F908F907F906F90F3
S11311405F904F90089580912D0C8F5F80932D0CAC
S11311500895009721F480918A0C90918B0C4D9600
S113116008959F92AF92BF92CF92DF92EF92FF9237
S11311700F931F93CF93DF9380912D0C8111DBC0CC
S11311808091340C9091350CA091360CB091370CB1
S11311900196A11DB11D8093340C9093350CA0933E
S11311A0360CB093370CC090340CD090350CE090D2
S11311B0360CF090370CC114D104E104F104F1F5BC
S11311C08091460C9091470C2091440C3091450C31
S11311D03093470C2093460C9093450C8093440C19
S11311E080912F0C8F5F80932F0CE091460CF0912F
S11311F0470C808181110CC08FEF9FEFDC0180933D
S1131200020190930301A0930401B093050116C059
S1131210E091460CF091470C0780F085E02D0084A6
S1131220F185E02D82819381A481B58180930201AF
S113123090930301A0930401B093050180910201EE
S113124090910301A0910401B0910501C816D9063B
S1131250EA06FB0610F4B12C5DC0B12C0F2EFBE0A6
S1131260AF2EF02D99249394E091460CF091470C05
S1131270808181110CC08FEF9FEFDC01809302010C
S113128090930301A0930401B093050143C0E0913E
S1131290460CF091470C0780F085E02DC085D18580
S11312A08A819B81AC81BD81C816D906EA06FB06FA
S11312B048F48093020190930301A0930401B09336
S11312C0050128C08E010E5F1F4FC8010E94B4049F
S11312D0888D998D892B21F0CE010E960E94B4043D
S11312E08A8D9091330C981710F48093330CA89E38
S11312F0C0011124B801825A934F0E945604E09110
S11313008A0CF0918B0C9A8D828D981708F4ACCFCF
S1131310B92CAACFE0918A0CF0918B0CE28D8BE072
S1131320E89FF0011124E25AF34F8081823048F0A3
S1131330BB24B39406C08091310C8F5F8093310C31
S1131340B12C8091300C882311F0BB24B3948B2DE5
S1131350DF91CF911F910F91FF90EF90DF90CF908D
S1131360BF90AF909F900895CF92DF92EF92FF923B
S11313700F931F93CF93DF930FB6F8940F9280913E
S11313802D0C815080932D0C80912D0C81115FC008
S11313908091380C81112CC05DC0D7011796ED9156
S11313A0FC911897C085D185CE010E960E94B40495
S11313B08E010E5F1F4FC8010E94B4048A8D909164
S11313C0330C981710F48093330CD89EC001112469
S11313D0B801825A934F0E945604E0918A0CF0910E
S11313E08B0C9A8D828D981778F0C092300C0CC0BB
S11313F00F2EF9E3EF2EFCE0FF2EF02D0F2EFBE075
S1131400DF2EF02DCC24C394F70180818111C5CF48
S11314108091310C882399F08091310C882379F0E4
S1131420C1E00E94B1088111C093300C8091310C4D
S113143081508093310C8091310C8111F2CF8091D5
S1131440300C813031F40E94530581E003C080E008
S113145001C080E00F900FBEDF91CF911F910F91DB
S1131460FF90EF90DF90CF900895CF92DF92EF92AC
S1131470FF926B017C01672B682B692BE9F00E94BA
S1131480A3088091340C9091350CA091360CB09146
S1131490370CC80ED91EEA1EFB1E80918A0C90914F
S11314A08B0C02960E94B404C701B6010E94450742
S11314B00E94B409811102C00E945305FF90EF906D
S11314C0DF90CF90089580912D0C882321F081E046
S11314D08093300C08951092300CE091330C4BE063
S11314E0E49FF0011124E25AF34F8081811110C06E
S11314F09BE08091330C81508093330CE091330C4A
S11315009E9FF0011124E25AF34F8081882389F3CE
S11315108091330C282F30E04BE0849FC0011124CC
S1131520DC01A25AB34F1196ED91FC9112970480FD
S1131530F581E02D1296FC93EE9311978F59934FFA
S1131540E817F90761F4848195814BE0429FF0012B
S1131550439FF00D1124E25AF34F928381838BE071
S1131560829FF001839FF00D1124E25AF34F018012
S1131570F281E02D8085918590938B0C80938A0C69
S113158008958F929F92AF92CF92DF92EF92FF9243
S11315900F931F93CF93DF931F92CDB7DEB7CE0186
S11315A001960E94140285E190E00E94DA040F2E55
S11315B0FCE8EF2EFCE0FF2EF02D00E010E028EC1C
S11315C030E041E065E671E00E94650084E190E06E
S11315D00E94DA0428EC30E041E061E771E00E9407
S11315E0D6008DE190E00E94DA04812C912CA12C8C
S11315F0C12CD12C760120E931E045E06EE771E0A1
S11316000E94CA0184E190E00E94DA040F2EFCE8F3
S1131610EF2EFCE0FF2EF02D20E931E046E062E8F9
S113162071E00E94FE0184E190E00E94DA04E12C62
S1131630F12C20E931E046E068E871E00E941F02E5
S113164084E190E00E94DA0420E931E049E061E9B4
S113165071E00E944E0280E090E00F90DF91CF9104
S11316601F910F91FF90EF90DF90CF90AF909F90DC
S11316708F900895DC0101C06D9341505040E0F714
S11316800895FB01DC014150504048F001900D9257
S11316900020C9F701C01D9241505040E0F7089561
S10716A0F894FFCFE8
S11316A4770AFFFFFFFF00000000AB0013070000F0
S11316B400002301130700000000800113077E01CA
S11316C4C301EEFF00007F01C6017D011903650219
S11316D400000000FD0113070000000016021307B8
S11316E4000000004D021307424E4F303535000010
S11316F40000006402A6027D0119036502000000D3
S113170400E204130766696674685F776865656C4C
S113171400676561725F7368696674657200696DF8
S113172475006D6F746F72007374656572696E67AA
S11117340073706565642073656E736F7200D8
S9030000FC
